:020000040000FA
:10000000502000208D03000095030000970300009E
:10001000A7030000A9030000AB03000000000000DC
:10002000000000000000000000000000AD03000020
:10003000AF03000000000000B1030000ED57000016
:10004000B5030000B5030000B5030000B5030000D0
:10005000B5030000B5030000B5030000B5030000C0
:10006000B5030000B5030000B5030000B5030000B0
:10007000B5030000B5030000B5030000B5030000A0
:10008000B5030000B5030000B5030000B503000090
:10009000B5030000B5030000B5030000B503000080
:1000A000B5030000B5030000B5030000B503000070
:1000B000B5030000B5030000B5030000B503000060
:1000C000755A0000B5030000B5030000B503000039
:1000D000B5030000B5030000B5030000B503000040
:1000E0009D370000B5030000B5030000B503000014
:1000F000B5030000B5030000B5030000B503000020
:10010000B5030000B5030000B5030000B50300000F
:10011000B503000039690000B5030000B503000015
:10012000B5030000B5030000B5030000B5030000EF
:10013000B5030000B5030000B5030000B5030000DF
:10014000F93E00004D5D000025220000B5030000CF
:10015000B5030000B5030000B5030000B5030000BF
:10016000B5030000B5030000B5030000B5030000AF
:10017000B5030000B5030000B5030000B50300009F
:10018000B5030000B5030000B5030000B50300008F
:10019000B5030000B5030000B5030000B50300007F
:1001A000B5030000B5030000B5030000B50300006F
:1001B000B5030000B5030000B5030000B50300005F
:1001C000B5030000B5030000B5030000B50300004F
:1001D000B5030000B5030000B5030000B50300003F
:1001E000B5030000B5030000B5030000B50300002F
:1001F000B5030000B5030000B5030000B50300001F
:10020000B5030000B5030000B5030000B50300000E
:10021000B5030000B5030000B5030000B5030000FE
:10022000B5030000B5030000B5030000B5030000EE
:10023000B5030000B5030000B5030000B5030000DE
:1002400000F002F800F092F80AA090E8000C824456
:100250008344AAF10107DA4501D100F087F8AFF233
:10026000090EBAE80F0013F0010F18BFFB1A43F094
:10027000010318474406020064060200103A24BF36
:1002800078C878C1FAD8520724BF30C830C144BFFB
:1002900004680C607047000000230024002500263D
:1002A000103A28BF78C1FBD8520728BF30C148BFD9
:1002B0000B6070476E2900F08981702900F0D782A9
:1002C000662909F09680652909F09380672909F06D
:1002D0009080612909F08F8003681B0A28BF41F0D4
:1002E0008001692900F03681642900F03381752985
:1002F00000F030816F2900F06582782900F0A38238
:10030000E92900F0FF81E42900F0FC81F52900F0E3
:10031000F981EF2900F06282F82900F0A2820368D7
:10032000DB0928BF41F08001632900F0E1877329D0
:1003300000F0E687E32900F0F187F32900F0F68763
:10034000002070471FB509F047F801F03DF80400A0
:100350000020002109F014F8401C606000200021FA
:1003600009F024F8E0601FBD10B510BD01F006F8DB
:100370001146FFF7E7FF07F0D5F801F0DBF803B40B
:10038000FFF7F2FF03BC07F055F800000D48804767
:100390000D480047FEE77046EFF30881EFF309824E
:1003A0000A4B98470047FEE7FEE7FEE7FEE7FEE759
:1003B000FEE7FEE7FEE7000005480649064A074B50
:1003C000704700009558000041020000193C0000F1
:1003D000500F00205020002050100020501000200E
:1003E000704700000FB4044910B503AA029800F04A
:1003F00019F910BC5DF814FB0C060020032A40F22A
:10040000308010F0030C00F0158011F8013BBCF1B6
:10041000020F624498BF11F801CB00F8013B38BFCE
:1004200011F8013BA2F1040298BF00F801CB38BFDC
:1004300000F8013B11F0030300F0E882083AC0F035
:10044000088051F8043B083A51F804CBA0E80810A2
:10045000F5E7121D5CBF51F8043B40F8043BAFF3D5
:100460000080D20724BF11F8013B11F801CB48BF2F
:1004700011F8012B24BF00F8013B00F801CB48BF65
:1004800000F8012B7047704770477047704770B590
:10049000044685690068C10601D5302600E02026A3
:1004A000C00707D070BDD4E9012130469047206ACB
:1004B000401C20626D1EF6D570BD70B5044685697E
:1004C0000078C00707D170BDD4E9012120209047F2
:1004D000206A401C20626D1EF6D570BD09684A0571
:1004E00001D540B27047C905FCD500B27047096814
:1004F0004A0501D5C0B27047C905FCD580B2704726
:1005000070B50C460546012A05D02878800600D52E
:10051000EA69002302E0012305E05B1C934202D25A
:10052000E05C0028F9D1A869E618C01AA861286A19
:10053000184428622846FFF7AAFF04E0D5E9012104
:1005400014F8010B9047B442F8D32846FFF7B5FFE3
:1005500070BD00002DE9F0410646002410687529A1
:10056000314616A510D0FFF7B9FF002802DA404245
:1005700013A507E031688A0701D512A502E04907F3
:1005800004D511A5012401E0FFF7B1FF00210A22E3
:1005900006F1240709E0B0FBF2FCB0FBF2F302FB2A
:1005A0001C00303078541846491C0028F3D12346EB
:1005B0002A463046BDE8F04100F0ABBA000000002A
:1005C0002D0000002B0000002000000011680268D0
:1005D000006A530501D508700AE0D30501D50880EB
:1005E00006E0130603D5C217C1E9000200E0086067
:1005F0000120704701694A1C02610878704700B504
:100600008FB0CDE901310021059105497944CDE94B
:1006100003101146684600F035F90FB000BD000028
:10062000E5FFFFFF074B70B50D467B44FFF7E7FF83
:100630000446284606F018FF10B14FF0FF3070BD99
:10064000204670BD476E00002DE9FF5F15468A46C3
:100650000446DFF8AC80F8440027D8E900103E4695
:10066000CDE9001010E05AF826106A4602A800F002
:1006700061FE411C07D02178890603D5E26939184B
:1006800091420DD80744761C2078800602D5E06997
:10069000B84205DDAE42E6DB5AF826000028E2D17A
:1006A000A069C01BA0612046FFF7F1FED8E9001049
:1006B000CDE90010002017E05AF828106A4602A879
:1006C00000F038FEB0F1FF3F81460BD000250DF160
:1006D000080B05E0D4E901211BF8050090476D1CCB
:1006E0004D45F7D308F10100B0428046E4DB206AB3
:1006F000384420622046FFF7E0FEBDE8FF9F00007F
:10070000A28D00002DE9F0418046D21D22F00702A3
:100710000025D2E90002F52915A614D0011E72F1B8
:10072000000106DA0023D0EB030063EB020211A6FE
:1007300008E0D8F800108B0701D50FA602E04907A2
:1007400001D50EA601251146002408F1240704E076
:1007500000F09AF930323A55641C50EA0102F7D1A0
:100760002B46324621464046BDE8F04100F0D1B963
:10077000000000002D0000002B0000002000000001
:1007800030B4002100F1240408E002F00705D2088B
:10079000303542EA4372DB086554491C52EA0305CE
:1007A000F3D10468002310A2250708D504F0200423
:1007B0000C4304D0C46901230CA2641EC46130BC84
:1007C00000F0A7B910B5044621461068FFF78FFE68
:1007D00002462046BDE810400023D1E7D21D22F09A
:1007E0000701D1E90023CBE7000000003000000042
:1007F000F0B40D460188090502D5214C7C4402E085
:100800001F4C7C440E34002100F1240608E002F065
:100810000F071209E75D42EA03721B097754491C6E
:1008200052EA0307F3D102780023120704D5702D92
:1008300006D009B1022311342246F0BC00F069B998
:1008400001231034F8E770B504460D4621461068C0
:10085000FFF74DFE024629462046BDE870400023C2
:10086000C6E7D21D22F00703D3E90023C0E70368DF
:10087000126843F0200303600823C3610023B7E735
:10088000048C00002DE9F05F894604464FF0000A11
:10089000DFF874B1FB44C0F820A02046E168884727
:1008A000002874D0252806D0D4E901219047206A79
:1008B000401C2062F1E700265F462046E168884739
:1008C0002028054607DB312D05D2781910F8200CB9
:1008D00008B10643F1E7B00701D526F00406C4F8D5
:1008E0001CA00027C4F818A02A2D09D0284608F01B
:1008F0003FFD38B304EB8708303DC8F8185019E0C5
:1009000059F8041B204604EB87029161E16888478F
:10091000012F054618D1E069002820DA26F02006CC
:100920001DE0D8F8180000EB800005EB40003038DF
:10093000C8F818002046E1688847054608F018FD09
:100940000028EED1012F0AD02E2D08D12046E168D3
:1009500088477F1C0546022F46F02006C4DBA069AD
:10096000002803DA404246F00106A061F00701D0FA
:1009700026F010066C2D0BD0682D09D04C2D39D0E7
:100980006A2D35D0742D35D07A2D33D016E038E06D
:10099000E1682F4620468847B842054609D16C2FAA
:1009A00026D04FF48060E16806432046884705461C
:1009B00004E06C2F1AD04FF4807006430DB3A5F1FC
:1009C0004100192802D8203546F400664A462946D7
:1009D000204626604E46FFF76DFC80B101280BD003
:1009E000F61D26F0070000F1080956E74020E4E76D
:1009F0008020D8E70020D6E706F104094DE7284615
:100A000052E7206ABDE8F09F948B000010B5203AB1
:100A1000C0F00B80B1E81850A0E81850B1E81850A9
:100A2000A0E81850203ABFF4F5AF5FEA027C24BF7B
:100A3000B1E81850A0E8185044BF18C918C0BDE864
:100A400010405FEA827C24BF51F8043B40F8043B2D
:100A500008BF7047D20728BF31F8023B48BF11F8E2
:100A6000012B28BF20F8023B48BF00F8012B70473C
:100A7000004870478000002010B500F0A5FC001D64
:100A800010BD00BFFD88000030B5B0F10A0271F161
:100A900000034FEA900E4EEA817EB0EB0E0061EB50
:100AA00091014FEA101E4EEA017E10EB0E0041EB61
:100AB00011114FEA102E4EEA016E10EB0E0041EBC1
:100AC00011214FEA104E4EEA014E10EB0E0041EBA1
:100AD0001141401841F100014FEAD00040EA417055
:100AE0004FEAD1014FEA810444EA907410EB80058B
:100AF00044EB01046D1944EB0404521BA3414FF075
:100B0000000348BF0A3200D530BD401C41F100014E
:100B100030BD2DE9F0470D4699469246044600F156
:100B200024080168880604D5E06921F010012160DD
:100B300000E00120A84201DD471B00E00027A16979
:100B40007A1902EB0900081AA0612078C00602D4C5
:100B50002046FFF79CFC002608E0D4E901211AF8A2
:100B600006009047206A401C761C20624E45F4DB4C
:100B70002078C0060AD52046FFF789FC06E0D4E9B4
:100B8000012130209047206A401C2062381EA7F1C6
:100B90000107F4DC07E0D4E9012118F805009047CB
:100BA000206A401C2062281EA5F10105F3DC2046C6
:100BB000FFF783FC2078000602D50220BDE8F0870D
:100BC0000120FBE72DE9FF4F0C461E464FF0FF3793
:100BD0008BB0D2E90001DDF860800A908A46C1F34B
:100BE0000A5505B93D46002108464FF00000BAF10C
:100BF000000F00F4400005DA00EB80004FF44001E4
:100C000001EA50004FEA9059B9F1010F00DDB946F1
:100C10000A9850EA4A000ED044F61050A5F2FF356B
:100C200045432F14B8F1000F1ED07542291E1EDD5A
:100C3000C9F100021CE0B8F1010F4FF0000001D033
:100C4000302103E0F24305E02154401CB042FBDBBD
:100C500030460022002121540B99C1F80880C1E9D7
:100C600000200FB0BDE8F08FBD1B6D1CDEE74A46CB
:100C700000DA694206A800F0EBFB06AB93E8070038
:100C800003AB83E8070050460A9907F090FF8DE810
:100C90000700A0F500501F3800900398002D0ADDD2
:100CA00042F21F014A460844002303A90390684604
:100CB00008F0FAF909E0A0F500504A461F38002371
:100CC00003A90390684608F004FA8DE807000004C1
:100CD000000C03D04FF0FF30410800E01046B8F19F
:100CE000000F03D00022009215461EE0751E05D4A9
:100CF000FFF7CAFE303262556D1EF9D5B3460122A8
:100D0000084302D000227F1C04E02078302801D163
:100D100000227F1E002A099784D01DE0112D07DADA
:100D2000FFF7B2FE303262556D1C50EA0102F5D178
:100D3000084302D00098C8B10EE00021681E05E00B
:100D4000235C625C63542254401E491C8142F7DBE1
:100D5000AB46A81B401E0990002004F80B000B981E
:100D6000099AC0F80880C0E9002B7AE711264FF0F5
:100D7000000857E72DE9F04F88460446D21D22F0BF
:100D8000070191B0D1E90001CDE90A0108F0D8FAD4
:100D900002460B98C00F01D02D2007E02068810784
:100DA00001D52B2002E0202101EAC000032A09908E
:100DB00001D0072A05DB03464146204600F008FB28
:100DC0000BE12078800601D5E06900E00620B8F14B
:100DD000650F814606D0B8F1660F18D0B8F1670FDD
:100DE00070D131E00020B9F1110F009001DB112327
:100DF00001E009F101030AAA01A90CA8FFF7E2FE2C
:100E0000DDE90C70002609F10105834647E0012069
:100E10004B4600904FF000470AAA01A90CA8FFF723
:100E2000D1FEDDE90DB00C995D46002610B909F13F
:100E300001000D18B9EB050003D4C0F1FF3609F12C
:100E40000105A5EB09002BE0B9F1010F01DA4FF024
:100E500001090020B9F1110F0090484601DD11236E
:100E600000E003460AAA01A90CA8FFF7ABFEDDE9E2
:100E70000C704D4600268346207800070AD4AB4507
:100E800000DA5D4601A8012D04DD411911F8011CAD
:100E9000302907D04F4502DA17F1040F04DA012098
:100EA00082460FE06D1EEEE7002F02DCED1B3E4494
:100EB00003E0781CA84200DD7D1CB81B00F1010A8C
:100EC0004FF000472078000703D4AA4501DB4FF01C
:100ED000FF3A0021B7F1004F0DF143088DF84310A0
:100EE00024D002202B23002F01DA7F422D230A2158
:100EF000021EA0F1010000DC5FB197FBF1FC97FB43
:100F0000F1F201FB1C7C17460CF1300C08F801CD06
:100F1000EEE7A8F1010003702188090501D54521FC
:100F200000E06521A0F1010800F8011C09980FA953
:100F3000A1EB0807FF1D00B10120411901EBEA7088
:100F4000A1693844081A401EA0612078C00602D466
:100F50002046FFF79CFA099828B1D4E9012190476F
:100F6000206A401C20622078C00622D52046FFF768
:100F70008EFA1EE0002E04DBB34502DD01A8805D81
:100F800000E03020D4E901219047206A401C206213
:100F9000761CAAF101005FEA000A0AD100F014FAF7
:100FA000C0680168405CD4E901219047206A401C78
:100FB0002062281EA5F10105DCDC07E0D4E901214F
:100FC00018F8010B9047206A401C2062381EA7F1D8
:100FD0000107F3DC2046FFF770FA032011B041E669
:100FE0002DE9F04F04460D46D21D22F0070089B0CE
:100FF000D0E900974846394608F0A2F90246F80FB2
:1010000001D02D2307E02068810701D52B2302E0C2
:10101000202101EAC0038DF820300BB1012000E04F
:101020000020032A824601D0072A04DB29462046F5
:1010300000F0CEF93FE12078800601D40D2500E0D4
:10104000E569C7F30A560D2D49DA00214FEA175B0F
:1010500008464FF00000002F00F4400007DA00EBD4
:1010600080004FF4400100EBD07001EA6000811570
:10107000012901DD4FF0FF3100224FEA850CBCF160
:10108000180F06D31346ACF118004FF08052C2403F
:1010900003E04FF4801323FA0CF30CF10C0CBCF1B9
:1010A000200F04D3ACF1200C09FA0CF001E007FA90
:1010B0000CF000294FF0004801DD18B90FE00ED107
:1010C00040450CD319EB02095F4121B9404502D1DB
:1010D0009F4329EA0209BBEB175F00D0761C2088EA
:1010E000000502D57B48784402E07A4878441938F4
:1010F00008AA302302F80A30037C0AF10101002E0D
:101100000AF1020A53546A4602DC4FF0300101E052
:101110004FF031014FF001088DF8001002D0A6F217
:10112000FF3603E059EA470100D06B4E002D02DC88
:101130002178090704D54FF002082E218DF80110FF
:10114000C44600210BE0C7F303433F01C35C491CC5
:101150006D1E02F80830052908F1010801DA002D9A
:10116000F1DC00210CE000EB1973491C1B786D1EAB
:10117000082902F808304FEA091908F1010801DAD4
:10118000002DF0DC21688B0602D516E0A8F10108DD
:10119000E04505DD02EB080313F8013C302BF5D0E8
:1011A000B8F1000F09DD02EB080313F8013C2E2B08
:1011B00003D1090701D4A8F10108002D05DD3E2166
:1011C00002F808106D1E08F10108407C002E02F89C
:1011D000080008F1010804DA2D20764202F8080020
:1011E00002E02B2002F808000A214FF47A708642B0
:1011F00008F101080BDB96FBF0F3303302F80830FE
:1012000096FBF0F308F1010800FB136601E0642E81
:101210000CDB642096FBF0F3303302F8083096FBC9
:10122000F0F308F1010800FB136601E00A2E06DB6B
:1012300096FBF1F0303002F8080008F1010896FB47
:10124000F1F001FB1060303002F80800A16908F1EC
:10125000010808EB050202EB0A00081AA0612078D9
:10126000C00602D42046FFF712F9216A08AE01EB4E
:101270000A00206204E0D4E9012116F8010B90472E
:10128000BAF1010AF7D22078C00602D52046FFF74E
:10129000FEF86E4609E016F8010B3E280FD0D4E99F
:1012A00001219047206A401C2062B8F10108F2D267
:1012B0002046FFF702F909B00320BDE8F08F206A4D
:1012C0002844206203E0D4E90121302090476D1EBC
:1012D000EBD3F8E76683000002FCFFFF10B543691B
:1012E00013B1AFF3008001E0FFF70AF9012010BD50
:1012F000127800F124010A7000224A700122EDE701
:1013000011684FF0FF32E9E710B5436913B1AFF34D
:10131000008001E0FFF798F9012010BD126800F18C
:1013200024014262002282620122EDE711684FF03F
:10133000FF32E9E72DE9F04116460C460546FFF776
:101340009BFB036893F80101012807D0FF2C12D8FA
:10135000185D80B101202C70BDE8F081D3F8070141
:101360003246214603F20713C7182846BC46BDE89B
:10137000F041012360474FF0FF30EDE77546FFF77E
:1013800077FBAE4605006946534620F007008546C8
:1013900018B020B5FFF710F8BDE820404FF0000668
:1013A0004FF000074FF000084FF0000BAC46ACE8E0
:1013B000C009ACE8C009ACE8C009ACE8C00921F03C
:1013C00007018D467047000000487047A0000020CC
:1013D0002DE9F0411F46044603260168072A01F45F
:1013E000006004DB08B116A505E016A503E008B10E
:1013F00015A500E015A521F010002060A069C01E11
:10140000A0610FB1401EA0612046FFF740F84FB128
:10141000D4E9012138469047206A401C2062C01C54
:10142000206206E0206AFAE7D4E9012115F8010BF1
:101430009047761EF8D22046FFF73FF8BDE8F081CE
:101440004E414E006E616E00494E4600696E660068
:101450002DE9F047814616468AB0354878440DC8D4
:101460008DE80D0032487844801C03AC0DC884E838
:101470000D0041F69B300844372190FBF1F290FBC0
:10148000F1F5A5F1800501FB12041B3C02D5644275
:10149000012000E00020DFF898A080460027FA44F1
:1014A000AAF1BE0A0EE0E0070AD03246684607EB12
:1014B000470101230AEB810107F00BFE8DE80700CD
:1014C00064107F1C002CEED1194F7F44AE3F19E011
:1014D000E80715D007EB04100DF1180A90E80E008C
:1014E0008AE80E00C068F04201D19819089032468F
:1014F000012306A903A807F0ECFD03AB83E807006E
:101500006D10641C002DE3D14FF001033246694693
:10151000B8F1000F03A802D007F0C6FD01E007F004
:10152000D8FDC9E90001C9F808200AB0BDE8F08774
:101530008080000010B50446AFF300802046BDE86F
:101540001040FEF71CBF000030B44FF0013C50F8D3
:10155000042B51F8043BCCFA52F4D51A20D1FCB933
:1015600050F8042B51F8043BCCFA52F4D51A17D199
:10157000B4B950F8042B51F8043BCCFA52F4D51A04
:101580000ED16CB950F8042B51F8043BCCFA52F44C
:10159000D51A05D1002CDAD030BC4FF000007047CE
:1015A00029BAB1FA81F111F01801D1F1200084407B
:1015B000F2D1CA40CB4012F0FF0213F0FF0330BC5F
:1015C000D01A704788B0079000200690059049F225
:1015D000F84CC0F2000CDCF80000DCF80410DCF879
:1015E0000820DCF80C30DCF810C0CDF810C00393F4
:1015F000029201910090079800F01F01012088409D
:1016000006900798410F684650F8210040F20421E7
:10161000C4F2000108440590069A05990868104331
:10162000086008B07047000080B58EB00D900C9136
:1016300040F24021C4F20001086840F480300860A4
:101640000D9888B9FFE740F20021C4F20001086854
:1016500040F001000860012000F0C2FD41F60030BA
:10166000C0F2B7000B9010E040F20021C4F200017C
:10167000086840F004000860102000F0B1FD41F659
:101680000030C0F2B7000B90FFE70C9846F2005113
:10169000C1F6CD51884200F2C780FFE70C984FF2A7
:1016A0008001C0F2FA218842C0F0BE80FFE70C98AA
:1016B0004EF2FF01C0F2F55188420ED8FFE70C98B8
:1016C0004FF28001C0F2FA21884206D3FFE70320DF
:1016D00008900C9880000C9019E00C984CF2FF11C7
:1016E000C0F6EB3188420ED8FFE70C984EF200119D
:1016F000C0F2F551884206D3FFE7012008900C980C
:1017000040000C9002E000200890FFE7FFE7032074
:101710000A904FF0FF300390002001900290FFE705
:101720000A98202860D8FFE70B980A99B0FBF1F0DF
:101730000690069840F60011C0F23D0188424ED353
:10174000FFE7069841F20021C0F27A01884246D8AC
:10175000FFE702200990FFE7099840F20121884243
:101760003CD8FFE706980999484340000590059842
:101770004CF20021C0F6EB3188422AD3FFE70598EE
:1017800046F20051C1F6CD51884222D8FFE70598B4
:101790000C99884205D9FFE705980C99401A0090EA
:1017A00004E00C980599401A0090FFE70098049017
:1017B0000498039988420BD2FFE7049803900A9893
:1017C000019009980290039808B9FFE706E0FFE747
:1017D000FFE7FFE7099801300990BDE7FFE7FFE762
:1017E0000A9801300A909BE70D98089940EA8130E9
:1017F000019A4FF60061CFF6FF7101EB42210843D9
:1018000002990239084340F24021C4F20001086005
:101810000B9808990131019A5143B0FBF1F10298FC
:101820004843400007900EE00D9844F21E21084303
:1018300040F24021C4F2000108604BF20000C0F603
:1018400071300790FFE7042000F0CAFC07980EB043
:1018500080BD000081B00090009A40F20021C4F2E7
:10186000000108681043086001B0704780B503F0BC
:10187000C5FF40F20C00C2F20000006880BD00000D
:1018800081B040F20020C4F200000068C00730B10F
:10189000FFE741F60030C0F2B700009002E0002000
:1018A0000090FFE7009801B07047000080B582B05B
:1018B00003F0A4FF40F23420C4F2000000684007A7
:1018C00038B9FFE740F20C00C2F200000068019056
:1018D00052E040F23420C4F20000006800F007003B
:1018E000012808D1FFE740F20C00C2F200000068B6
:1018F000400801903FE040F23420C4F2000000684C
:1019000000F00700022808D1FFE740F20C00C2F205
:1019100000000068800801902CE040F23420C4F2FE
:101920000000006800F00700032808D1FFE740F23C
:101930000C00C2F200000068C008019019E040F2FB
:101940003420C4F20000006800F00700042808D129
:10195000FFE740F20C00C2F20000006800090190AD
:1019600006E040F20C00C2F2000000680190FFE7C0
:10197000FFE7FFE7FFE7FFE7019802B080BD000047
:1019800080B582B003F03AFF40F23420C4F2000088
:10199000006810F0700F07D1FFE740F20C00C2F2B0
:1019A00000000068019052E040F23420C4F20000D0
:1019B000006800F07000102808D1FFE740F20C002A
:1019C000C2F200000068400801903FE040F234207D
:1019D000C4F20000006800F07000202808D1FFE782
:1019E00040F20C00C2F200000068800801902CE078
:1019F00040F23420C4F20000006800F0700030288B
:101A000008D1FFE740F20C00C2F200000068C008F5
:101A1000019019E040F23420C4F20000006800F0A8
:101A20007000402808D1FFE740F20C00C2F200002D
:101A300000680009019006E040F20C00C2F20000CC
:101A400000680190FFE7FFE7FFE7FFE7FFE7019886
:101A500002B080BD87B00020069040F20120C0F2A5
:101A60000240009040F24020C4F20000006805905F
:101A70009DF8160010F0050F03D0FFE70020069038
:101A80003BE09DF816000007002806D5FFE741F669
:101A90000030C0F2B700049005E041F60030C0F21B
:101AA000B7000490FFE79DF816008007002803D5D3
:101AB000FFE7049806901FE0BDF81410684640EA5E
:101AC00091300078019005986FF35F200230039009
:101AD000059800F47851012000EB51200290049801
:101AE00081080398484340000299019A5143B0FB92
:101AF000F1F080000690FFE7FFE7069807B0704717
:101B000080B582B0019040F25020C4F2000000681D
:101B100000F01000009001984CF20121C0F6EB316A
:101B2000884206D3FFE74CF20020C0F6EB3001906C
:101B30000EE001984FF27F01C0F2FA21884206D8E8
:101B4000FFE74FF28000C0F2FA200190FFE7FFE7C5
:101B500040F20021C4F20001086840F0040008606F
:101B6000102000F03DFB40F21021C4F20001086893
:101B700040F00700086040F22021C4F2000108682C
:101B800020F00F00086040F25020C4F2000000680E
:101B9000C00730B1FFE701990020FFF745FD019034
:101BA0000EE001994FF40020FFF73EFD019040F256
:101BB0005020C4F20000006800F010000090FFE721
:101BC0000220002100F010F8009848B9FFE740F229
:101BD0000021C4F20001086820F004000860FFE75B
:101BE000019802B080BD000080B584B003900291DE
:101BF00040F25020C4F20000006800F01000019094
:101C000040F20021C4F20001086840F004000860BE
:101C1000102000F0E5FA40F21021C4F2000108683B
:101C200040F00700086040F2F811C4F200010868B3
:101C300020F00300086040F20C00C2F200000068CF
:101C40000090FFE740F2FC10C4F200000068C007FB
:101C500038B1FFE70098411E009108B9FFE700E0A6
:101C6000F0E74CF24C01C4F200010868082262F36C
:101C70000300086040F22021C4F20001086820F04F
:101C80000F00029A1043086040F21021C4F20001D4
:101C9000086820F00700039A1043086003F0AEFDC7
:101CA00040F20C00C2F20000006849F20051C0F698
:101CB000BA2188420AD8FFE740F2F811C4F20001C5
:101CC0000868012262F301000860FFE740F20C009F
:101CD000C2F2000000680090FFE740F2FC10C4F27E
:101CE00000000068C00738B1FFE70098411E00916E
:101CF00008B9FFE700E0F0E740F20C00C2F2000094
:101D0000006844F6C011C0F66E2188420AD3FFE78E
:101D10004CF24C01C4F200010868082262F303008F
:101D2000086093E040F20C00C2F2000000684DF23F
:101D30008011C0F6F00188420AD3FFE74CF24C0153
:101D4000C4F200010868072262F3030008607CE027
:101D500040F20C00C2F20000006845F64011C0F2EB
:101D6000737188420AD3FFE74CF24C01C4F20001C0
:101D70000868062262F30300086065E040F20C0088
:101D8000C2F2000000684EF20011C0F2F551884224
:101D90000AD3FFE74CF24C01C4F2000108680522A7
:101DA00062F3030008604EE040F20C00C2F2000053
:101DB000006846F6C001C0F2784188420AD3FFE7C6
:101DC0004CF24C01C4F200010868042262F30300E3
:101DD000086037E040F20C00C2F2000000684FF2E9
:101DE0008001C0F2FA2188420AD3FFE74CF24C018D
:101DF000C4F200010868032262F30300086020E0D7
:101E000040F20C00C2F20000006847F64001C0F248
:101E10007D1188420AD3FFE74CF24C01C4F2000165
:101E20000868022262F30300086009E04CF24C01EA
:101E3000C4F200010868012262F303000860FFE7B2
:101E4000FFE7FFE7FFE7FFE7FFE7FFE7019848B994
:101E5000FFE740F20021C4F20001086820F004000E
:101E60000860FFE704B080BD80B592B0119010917A
:101E70000F9200200E900D9049F2245CC0F2000CED
:101E8000DCF80000DCF80410DCF80820DCF80C308A
:101E9000DCF810C0CDF830C00B930A92099108907D
:101EA00049F20C5EC0F2000EDEF80000DEF804100D
:101EB000DEF80820DEF80C30DEF810C0DEF814E0A2
:101EC000CDF81CE0CDF818C0059304920391029060
:101ED00040F20820C4F20000006800F00200019007
:101EE00011980121C2F20001884223D1FFE7019835
:101EF00048B9FFE740F20821C4F20001086840F049
:101F000002000860FFE741F20011C4F20401086812
:101F100020F08000109A10430860019848B9FFE74C
:101F200040F20821C4F20001086820F002000860B5
:101F3000FFE725E1119800904FF60561884200F017
:101F4000BE80FFE700984FF60951C0F2E0018842D9
:101F500000F0AA80FFE7009843F60671C0F2E8019E
:101F6000884254D0FFE700984FF61171C0F2EC019F
:101F7000884200F0AF80FFE7009843F61C61C2F290
:101F8000D401884238D0FFE700981F21C4F2D8015D
:101F900088427ED0FFE7009847F60A71C4F6F81130
:101FA000884260D0FFE7009847F60041C4F6C04180
:101FB000884237D0FFE7009847F60151C4F6C44184
:101FC00088423AD0FFE7009847F60261C4F6C8415C
:101FD00088423DD0FFE700984BF60671C6F2DC015F
:101FE000884200F08280FFE700984BF60051C6F669
:101FF000CC41884242D083E040F22021C4F200016B
:10200000086820F47F000F9A1043086098E040F2BF
:102010002021C4F20001086820F07F400F9A10438D
:1020200008608DE040F22421C4F20001086820F02D
:10203000FF000F9A1043086082E040F22421C4F2AE
:102040000001086820F47F400F9A1043086077E091
:1020500040F22421C4F20001086820F47F000F9AA6
:10206000104308606CE040F22421C4F200010868CB
:1020700020F07F400F9A1043086061E040F2282171
:10208000C4F20001086820F47F400F9A10430860F2
:1020900056E040F22821C4F20001086820F07F4099
:1020A0000F9A104308604BE040F22C21C4F200016B
:1020B000086820F47F400F9A1043086040E040F227
:1020C0002C21C4F20001086820F47F000F9A10430D
:1020D000086035E040F22C21C4F20001086820F0CD
:1020E0007F400F9A104308602AE040F23C21C4F27E
:1020F0000001086820F07F400F9A104308601FE03D
:102100001198800A0007D0B1FFE71198C0F382311F
:1021100002A850F8210040F22021C4F20001084436
:102120000D900D980068119AC2F38321C2F34412F6
:10213000914088430F9908430D990860FFE7FFE736
:102140001198800D0007D0B1FFE79DF8470000F01F
:102150001C0108A8405840F21021C4F200010844B4
:102160000E900E980068119AC2F38351C2F3444254
:1021700091408843109908430E990860FFE7FFE7F4
:1021800012B080BD81B00090009840F20401C2F20C
:102190000001096848434EF21401CEF200010860C4
:1021A0004EF21801CEF20001002008604EF210013C
:1021B000CEF2000105200860FFE74EF21000CEF2DB
:1021C00000000068C003002801D4FFE7F5E74EF2E5
:1021D0001001CEF200010020086001B0704700003D
:1021E00083B0029040F20C00C2F200000068400888
:1021F000019001200090FFE740F25020C4F200005F
:10220000006802990840884209D0FFE70198013828
:10221000019018B9FFE70020009000E0ECE700987B
:1022200003B0704780B582B040F24070C2F2000047
:10223000019001990020C1F8040805F0CFF902B01F
:1022400080BD000082B0019000200090FFE7009860
:102250000B281FD8FFE7009800EB800149F28000AF
:10226000C4F2010050F83100C1B20198B0EB111F67
:102270000BD1FFE7009800EB800249F27401C4F231
:102280000101082041F83200FFE7FFE70098013024
:102290000090DCE702B0704784B003900291019295
:1022A0000093019802280BD1FFE7039800EB80020E
:1022B00049F27401C4F20101012041F832001FE02B
:1022C000019804280BD1FFE7039800EB800249F244
:1022D0007401C4F20101032041F832000FE00198BB
:1022E00006280BD1FFE7039800EB800249F2740146
:1022F000C4F20101052041F83200FFE7FFE7FFE7E4
:10230000019800990843029940EA011040F0010049
:10231000039901EB810249F28001C4F2010141F805
:10232000320004B07047000083B040F28860C2F20F
:102330000000006840F21001C2F200010968884202
:1023400035D3FFE740F21000C2F2000000688008B9
:10235000019000200290FFE702980199884213D271
:10236000FFE740F28461C2F200010868006849F2A8
:102370002802C4F201021060086804300860FFE718
:10238000029801300290E7E740F21000C2F200002C
:10239000016849F23802C4F201021160026840F299
:1023A0008861C2F200010868801A086034E040F2D7
:1023B0008860C2F200000068019000200290FFE7F0
:1023C00002980199884215D2FFE740F28460C2F278
:1023D000000000680299405C8DF803009DF803003E
:1023E00049F22801C4F201010870FFE702980130A8
:1023F0000290E5E740F28861C2F20001086849F204
:102400003802C4F20102106040F28462C2F200029B
:10241000002010600860FFE703B0704780B58AB005
:102420000021089140F27060C2F20000C288099257
:1024300040F28C62C2F200021170C078013801468D
:102440000491212800F219820499DFE811F022009A
:102450003800BE0116021602D000E600160216026F
:1024600016021602160216021602AA00160216021A
:10247000160216021602160216021602160216029C
:10248000160216021602160216021602160258014B
:102490007A010998112803D8FFE70998039002E010
:1024A00012200390FFE70398099040F2B460C2F253
:1024B000000000680068099900F01AFAE6E149F2A4
:1024C0001800C4F2010000684007002834D5FFE777
:1024D00040F2B460C2F2000001684968C97807910F
:1024E000006840688078079940EA012007900998C1
:1024F0000799884216D9FFE707980990099A40F290
:102500001000C2F200000168B2FBF1F000FB1120E4
:1025100038B9FFE740F28C61C2F200010120087077
:10252000FFE7FFE740F2B460C2F2000000684068D5
:10253000099900F0DDF933E040F2B460C2F2000026
:1025400001680969C978079100680069807807996E
:1025500040EA0120079009980799884216D9FFE7B9
:1025600007980990099A40F21000C2F20000016831
:10257000B2FBF1F000FB112038B9FFE740F28C61AB
:10258000C2F2000101200870FFE7FFE740F2B460EB
:10259000C2F2000000680069099900F0A9F9FFE79C
:1025A00074E140F2B460C2F200000068C06938B95A
:1025B000FFE749F22C01C4F201010220086015E096
:1025C00009980B2803D8FFE70998029002E00C2035
:1025D0000290FFE70298099040F2B460C2F2000056
:1025E0000068C069099900F083F9FFE74EE1099896
:1025F000092803D8FFE70998019002E00A2001901A
:10260000FFE70198099040F2B460C2F20000006850
:10261000C068099900F06CF938E149F21800C4F279
:10262000010000684007002834D5FFE740F2B4609D
:10263000C2F2000001684969C978069100684069E2
:102640008078069940EA0120069009980699884208
:1026500016D9FFE706980990099A40F21000C2F2D5
:1026600000000168B2FBF1F000FB112038B9FFE770
:1026700040F28C61C2F2000101200870FFE7FFE721
:1026800040F2B460C2F2000000684069099900F0AD
:102690002FF933E040F2B460C2F2000001688969AA
:1026A000C9780691006880698078069940EA01201F
:1026B000069009980699884216D9FFE7069809906E
:1026C000099A40F21000C2F200000168B2FBF1F07A
:1026D00000FB112038B9FFE740F28C61C2F2000123
:1026E00001200870FFE7FFE740F2B460C2F200008B
:1026F00000688069099900F0FBF8FFE7C6E00998D7
:10270000082803D8FFE70998009002E0092000900C
:10271000FFE70098099040F2B460C2F2000001683F
:10272000896A40F27062C2F20002127951F82210F6
:1027300005910068406805990844099900F0D8F8A7
:10274000A4E0099840F2B461C2F200010968496A44
:1027500040F27062C2F20002127951F822108842EF
:1027600022D9FFE740F2B460C2F200000068406A7C
:1027700040F27061C2F20001097950F8210009901D
:10278000099A40F21000C2F200000168B2FBF1F0B9
:1027900000FB112038B9FFE740F28C61C2F2000162
:1027A00001200870FFE7FFE740F2B460C2F20000CA
:1027B0000068006A40F27061C2F20001097950F8C5
:1027C0002100099900F094F860E040F27060C2F2D4
:1027D00000008078072846D8FFE7099840F2B461E6
:1027E000C2F200010968896840F27062C2F2000218
:1027F000927851F822100978884223D9FFE740F2F5
:10280000B460C2F200000068806840F27061C2F2F9
:102810000001897850F8210000780990099A40F267
:102820001000C2F200000168B2FBF1F000FB1120C1
:1028300038B9FFE740F28C61C2F200010120087054
:10284000FFE7FFE740F2B460C2F200000068806872
:1028500040F27061C2F20001897850F821000999B4
:1028600000F046F808E049F22C01C4F20101022010
:10287000086001200890FFE708E049F22C01C4F24B
:1028800001010220086001200890FFE708980AB0C3
:1028900080BD000083B00290002000900190FFE70F
:1028A00001980B2821D8FFE7019800EB800149F23D
:1028B0008000C4F2010050F83100C1B20298B0EBC0
:1028C000111F0DD1FFE7019800EB800149F2740060
:1028D000C4F2010050F8310000F01000009004E054
:1028E000FFE7019801300190DAE7009803B07047E4
:1028F00082B001900091019840F28461C2F200011F
:102900000860009840F28861C2F20001086002B0DD
:102910007047000080B582B049F24401C4F2010161
:102920000A6840F27060C2F2000002700968090A89
:10293000417049F24801C4F201010968418049F23D
:102940004C01C4F201010968818049F25001C4F2CE
:1029500001010968C180007800F060000146019122
:1029600040B1FFE70198202807D0FFE701984028F1
:1029700012D020E000F0A6F824E040F2A860C2F2F5
:102980000000006838B1FFE740F2A860C2F2000022
:1029900000688047FFE715E040F2B060C2F2000037
:1029A000006838B1FFE740F2B060C2F20000006892
:1029B0008047FFE706E049F22C01C4F20101022042
:1029C0000860FFE702B080BD49F26001C4F2010176
:1029D0000020086049F25C01C4F2010180220A6013
:1029E0000860704783B00290019100920298FF281E
:1029F00010D1FFE7019849F25401C4F201010860C7
:102A0000019800990844013849F25801C4F20101C3
:102A1000086017E00198029901EB810249F28401F4
:102A2000C4F2010141F832000198009908440138CC
:102A3000029901EB810249F28801C4F2010141F8D7
:102A40003200FFE703B0704782B00190019838B9B7
:102A5000FFE749F22C01C4F20101022008602EE0D8
:102A600000200090FFE700980B2827D8FFE7009888
:102A700000EB800149F28000C4F2010050F83100FF
:102A8000C1B20198B0EB111F13D1FFE7009800EB22
:102A9000800049F27401C4F2010151F8300040F0A5
:102AA000100000F0F700009A02EB820241F83200B9
:102AB000FFE7FFE7009801300090D4E7FFE702B09E
:102AC0007047000080B586B040F28461C2F2000118
:102AD0000020086040F28861C2F20001086040F204
:102AE0007060C2F2000000780006002840F1BA8051
:102AF000FFE740F27060C2F20000407801460291A8
:102B00000A2800F2A7800299DFE801F03DA4A4A4FE
:102B1000A4A419A406A42A0040F29960C2F20000FD
:102B20000121FFF7E5FE49F23401C4F2010108205A
:102B3000086049F23001C4F20101086091E0FFF73A
:102B40006DFC60B9FFE749F23401C4F201010820CD
:102B5000086049F23001C4F201010860FFE780E03B
:102B600040F29860C2F200000121FFF7C1FE49F275
:102B70003401C4F201010820086049F23001C4F2B6
:102B8000010108606DE040F27060C2F20000007860
:102B900080281AD1FFE740F2B460C2F2000000685A
:102BA0004068C0794006002807D5FFE740F29A61E7
:102BB000C2F200010120087006E040F29A61C2F200
:102BC000000100200870FFE72FE040F27060C2F2C1
:102BD00000000078812807D1FFE740F29A61C2F235
:102BE0000001002008701FE040F27060C2F2000097
:102BF0000078822817D1FFE740F27060C2F200002F
:102C0000808800F00F008DF817009DF81700FFF77F
:102C100041FEC0B2002818BF012040F29A61C2F202
:102C200000010870FFE7FFE7FFE740F29A60C2F299
:102C30000000002141700221FFF75AFE49F23401E1
:102C4000C4F201010820086049F23001C4F2010118
:102C5000086006E049F22C01C4F20101022008607C
:102C6000FFE72DE140F27060C2F2000040780138C9
:102C7000014601910A2800F21B810199DFE811F059
:102C80000B001801A70018016700180118011801AE
:102C900084001801E80040F27060C2F20000807801
:102CA000002841D1FFE740F27060C2F20000808846
:102CB00000F00F00049000200390FFE703980B281A
:102CC00031D8FFE7039800EB800149F28000C4F29D
:102CD000010050F83100C1B20498B0EB111F1DD1B2
:102CE000FFE740F2BC60C2F2000000680399C840F0
:102CF000C00798B9FFE7039800EB800049F2740120
:102D0000C4F2010151F8300040F0080000F0EF007B
:102D1000039A02EB820241F83200FFE7FFE70398D3
:102D200001300390CAE7FFE749F23401C4F2010120
:102D30004FF48060086049F22C02C4F201020021C5
:102D4000116049F23001C4F201010860B7E040F2BD
:102D50007060C2F20000807840F29761C2F2000118
:102D6000087049F23401C4F201014FF48060086038
:102D700049F22C02C4F201020021116049F2300133
:102D8000C4F2010108609AE040F27060C2F20000F3
:102D9000807840F29961C2F20001087040F28061CF
:102DA000C2F200010120087049F23401C4F20101AD
:102DB0004FF48060086049F22C02C4F20102002145
:102DC000116049F23001C4F20101086077E040F27D
:102DD0007060C2F20000408800F00300022811D1A8
:102DE000FFE740F29461C2F200010120087040F256
:102DF0007060C2F20000407940F29661C2F20001B8
:102E00000870FFE740F27060C2F20000408800F0F6
:102E10000300032809D1FFE74FF20001C4F20401C7
:102E2000086840F006000860FFE749F23401C4F288
:102E300001014FF48060086049F22C02C4F20102E3
:102E40000021116049F23001C4F20101086036E04E
:102E500040F27060C2F20000807840F29861C2F2E5
:102E60000001087040F2AC60C2F20000006860B17E
:102E7000FFE740F2AC60C2F20000016840F29860E7
:102E8000C2F2000000788847FFE749F23401C4F23B
:102E900001014FF48060086049F22C02C4F2010283
:102EA0000021116049F23001C4F20101086006E01E
:102EB00049F22C01C4F2010102200860FFE7FFE79C
:102EC00006B080BD40F29761C2F200010020087098
:102ED00040F29061C2F20001086040F29561C2F2D6
:102EE0000001087040F28061C2F20001087049F2EE
:102EF0002001C4F2010108607047000080B584B071
:102F000040F27060C2F20000407801380146009142
:102F1000082800F2C6800099DFE801F0AFC33CC387
:102F200005C3C3C3100040F29760C2F200000078EE
:102F300049F22001C4F201010860B3E040F2996057
:102F4000C2F20000007820BBFFE700200390FFE7FB
:102F500003980B281CD8FFE7039800EB800149F287
:102F60008000C4F2010050F83100C00758B1FFE7FB
:102F7000039800EB800249F27401C4F201010820B9
:102F800041F83200FFE7FFE7039801300390DFE7E5
:102F9000FFE787E040F27060C2F20000408860B94D
:102FA000FFE740F27060C2F20000808800F00F007E
:102FB00002900298FFF748FD5EE040F29460C2F292
:102FC00000000078002856D0FFE740F29461C2F27A
:102FD00000010020087040F29660C2F20000007804
:102FE000012807D1FFE749F22401C4F201010120C1
:102FF00008603FE040F29660C2F2000000780228CC
:1030000007D1FFE749F22401C4F201010220086060
:103010002FE040F29660C2F200000078032807D14A
:10302000FFE749F22401C4F20101032008601FE018
:1030300040F29660C2F200000078042807D1FFE752
:1030400049F22401C4F20101042008600FE040F2BB
:103050009660C2F200000078052807D1FFE749F228
:103060002401C4F2010105200860FFE7FFE7FFE744
:10307000FFE7FFE7FFE7FFE714E040F27060C2F20E
:103080000000408860B9FFE740F27060C2F20000C3
:10309000808800F00F0001900198FFF7D3F8FFE758
:1030A00000E0FFE704B080BD80B584B003900291DA
:1030B000039841F20001C4F20801884208D0FFE7FA
:1030C000039843F20001C4F20801884204D1FFE7EB
:1030D000FEF756FC009003E0FEF7E8FB0090FFE7E8
:1030E000009800EB8000400002998900B0FBF1F0ED
:1030F00005304CF6CD41CCF6CC41A0FB01014FF0A0
:10310000FF3000EBD1000190019803990861039909
:10311000086840F0400008600098019A042101EB23
:103120008201B0FBF1F004B080BD000086B00590D4
:103130008DF813108DF8122001208DF81100002059
:103140008DF810008DF80F008DF80E00029040F2FF
:103150007861C2F2000108600598006840F0200024
:1031600020F0080005990860FFE79DF81110002085
:10317000019039B1FFE79DF81000B0FA80F04009E6
:103180000190FFE70198C007002800F0A780FFE743
:1031900040F20C00C2F2000000680290FFE70598C0
:1031A00000680007002811D4FFE702980138029058
:1031B00058B9FFE740F27861C2F200016FF00100F8
:1031C000086001208DF8100000E0E8E70598C0686D
:1031D000083801460091502800F268800099DFE825
:1031E00001F02965656565656565436565656565C6
:1031F00065653365656565656565386565656565DE
:1032000065653F65656565656565386565656565C1
:10321000656564656565656565654E656565656576
:103220006565526565656565656565656565656561
:10323000656559009DF813004000C0B2059988608B
:1032400008208DF80E003FE09DF812000599886077
:103250003AE018208DF80E0001208DF8100033E0C0
:1032600028208DF80E002FE09DF81300400001305B
:10327000C0B20599886008208DF80E0024E008206F
:103280008DF80E0020E018208DF80E0001208DF83A
:10329000100019E0059880688DF80F0018208DF84F
:1032A0000E0000208DF811000EE0FFE70598006881
:1032B000062161F385000599086008208DF80E004D
:1032C00001208DF81000FFE70598006820F03C0011
:1032D0009DF80E1008430599086046E79DF8100018
:1032E00020B1FFE700208DF80F00FFE79DF80F00E9
:1032F00006B0704787B006908DF817108DF816202D
:103300008DF8153001208DF8140000208DF8130081
:103310008DF812000390029040F27861C2F2000131
:1033200008600698006840F0200020F00800069928
:103330000860FFE79DF814100020019039B1FFE705
:103340009DF81300B0FA80F040090190FFE7019862
:10335000C007002800F08580FFE740F20C00C2F2B1
:10336000000000680290FFE7069800680007002848
:1033700011D4FFE702980138029058B9FFE740F2F4
:103380007861C2F200016FF00100086001208DF841
:10339000130000E0E8E70698C0680838014600918D
:1033A000302800F246800099DFE801F019434343DA
:1033B00043434343434343434343434323434343FD
:1033C0004343434328434343434343432F434343FC
:1033D00043434343284343434343434342009DF80D
:1033E00017004000C0B20699886008208DF81200CE
:1033F0002DE09DF816000699886028E018208DF8C9
:10340000120001208DF8130021E0039840B9FFE776
:103410009DF815000699886003980130039006E036
:1034200018208DF8120000208DF81400FFE70EE040
:10343000FFE706980068062161F385000699086099
:1034400008208DF8120001208DF81300FFE7069880
:10345000006820F03C009DF81210084306990860AF
:1034600068E79DF813009DF81410084307B07047F3
:1034700080B582B042F20000C4F2080001906821D9
:1034800000916B220023FFF735FF00990198192264
:103490000723FFF72FFF009901981A220623FFF751
:1034A00029FF009901981B221823FFF723FF009999
:1034B00001981C220123FFF71DFF02B080BD000010
:1034C00080B540F23051C4F200010868062262F370
:1034D0000C200860086862F30400086042F20000F3
:1034E000C4F2080048F2A061C0F20101FFF7DCFD60
:1034F00080BD000080B586B04FF08340059042F259
:103500000000C4F208000190682100913C22FFF7FE
:103510000DFE00990246019840F2E003C2F200035A
:1035200002931A703B22FFF701FE0099029B0246AC
:1035300001985A701A785B7842EA032240F2FC1331
:10354000C2F2000303931A803E22FFF7EFFD0099B9
:10355000029B024601989A703D22FFF7E7FD009911
:10356000029B02460198DA709A78DB7842EA0322DD
:1035700040F2FE13C2F2000304931A804022FFF7C8
:10358000D5FD0099029B024601981A713F22FFF770
:10359000CDFD029B0399049A587118795B7940EA32
:1035A000032340F20020C2F200000380B1F90010B2
:1035B00000EE101AB8EEC00A9DED051A80EE010A61
:1035C000BDEEC00A10EE101AB2F9002000EE102A6B
:1035D000B8EEC00A80EE010ABDEEC00A10EE102A55
:1035E000B0F9000000EE100AB8EEC00A80EE010A41
:1035F000BDEEC00A10EE103A40F65400C0F20200D0
:10360000FCF7F0FE002006B080BD000080B58AB057
:1036100040F2C060C2F2000068210691017042F2DF
:103620000000C4F20800089075220792FFF77EFDA3
:10363000014640F67100C0F20200FCF7D3FE069985
:10364000079A0898FFF772FD702809D1FFE740F646
:103650003C00C0F20200FCF7C5FEFFF709FF09E0DD
:1036600040F62600C0F20200FCF7BCFEFF208DF8F9
:1036700027008EE042F20000C4F2080002906821A8
:1036800001913C22FFF752FD01990246029840F257
:10369000E003C2F2000303931A703B22FFF746FDDA
:1036A0000199039B024602985A701A785B7842EAA5
:1036B000032240F2FC13C2F2000305931A803E225B
:1036C000FFF734FD0199039B024602989A703D2250
:1036D000FFF72CFD0199039B02460298DA709A7855
:1036E000DB7842EA032240F2FE13C2F200030493A5
:1036F0001A804022FFF71AFD0199039B02460298A7
:103700001A713F22FFF712FD039B049A0599587125
:1037100018795B7940EA032340F20020C2F20000EE
:103720000380B0F90000B2F900201044B1F9001094
:103730000844002819D4FFE740F20020C2F200003C
:10374000B0F9000040F2FE11C2F20001B1F9001020
:10375000084440F2FC11C2F20001B1F90010084423
:1037600049F6414188420ADBFFE740F65E00C0F2BD
:103770000200FCF737FEFF208DF8270009E040F635
:103780004C00C0F20200FCF72DFE00208DF827004F
:10379000FFE79DF927000AB080BD000080B588B022
:1037A00048F21C40C4F20000006807909DF81C001D
:1037B0008007002862D5FFE748F22440C4F20000E9
:1037C00000684007002852D5FFE748F20001C4F224
:1037D00004010691086820F002000860086820F4DF
:1037E0008010086048F20000C4F200000390042139
:1037F000029100F087F8039840F24401C2F2000100
:103800000B68022104914FF4005200F0E5F8039890
:1038100004996B464FF440625A6048F21002C4F2B9
:1038200004021A6049F28852C0F200020023059394
:1038300000F0AAF803980499059B6A4613602C22AD
:1038400000F0E8F8029A03980499702300F084F8D5
:1038500003980499059A00F023F80699086840F443
:1038600080100860086840F002000860FFE748F236
:103870002441C4F20001042008600EE09DF81D0000
:103880004007002808D5FFE748F21C41C4F20001B8
:103890004FF480500860FFE7FFE708B080BD0000EC
:1038A00084B00390029101920198009040B1FFE72B
:1038B000009801280FD0FFE70098022813D01DE0E0
:1038C0000299012000FA01F20399D1F8180410437B
:1038D000C1F8180413E0039902980201885820F0F7
:1038E000800088500BE00299012000FA01F2039950
:1038F000D1F838041043C1F8380400E0FFE704B001
:103900007047000083B00290019100200090FFE713
:1039100000980F2817D8FFE700990198C840C00702
:1039200060B1FFE702990098020100208850009AD8
:1039300040F26061C2F200018854FFE7FFE700989F
:1039400001300090E4E7019A0299D1F80004104395
:10395000C1F8000403B0704784B003900291019253
:103960000093039902980201885820F0740088504F
:103970000198009940EA01030399029802018858CE
:103980001843885004B0704784B0DDF814C0DDF8E7
:1039900010C0039002910192009301980399029A3A
:1039A00001EB0211486004980399029A01EB02119D
:1039B0008860039902980201885820F4706088504A
:1039C0000098059940EA010303990298020188587A
:1039D0001843885004B0704784B00390029101925C
:1039E000009303990298020188584CF6FF7318401F
:1039F00088500198009A0021CFF6FF7101EB024137
:103A000040EA01030399029802018858184388503C
:103A100004B0704785B0DDF814C0049003910292A1
:103A200001930298039A40F26061C2F20001885447
:103A3000039800900F2800F2C7800099DFE801F09A
:103A400008131F2B37424E5A66717D8995A0ACB87A
:103A50000498D0F8800420F07F000299084304996C
:103A6000C1F88004B1E00498D0F8800420F4FE404E
:103A7000029940EA01200499C1F88004A5E0049865
:103A8000D0F8800420F4FE00029940EA0140049935
:103A9000C1F8800499E00498D0F8800420F0FE403A
:103AA000029940EA01600499C1F880048DE004980D
:103AB000D0F8840420F07F00029908430499C1F8EB
:103AC000840482E00498D0F8840420F4FE40029933
:103AD00040EA01200499C1F8840476E00498D0F803
:103AE000840420F4FE00029940EA01400499C1F8E0
:103AF00084046AE00498D0F8840420F0FE4002991F
:103B000040EA01600499C1F884045EE00498D0F8AA
:103B1000880420F07F00029908430499C1F88804C2
:103B200053E00498D0F8880420F4FE40029940EA5B
:103B300001200499C1F8880447E00498D0F888046B
:103B400020F4FE00029940EA01400499C1F888047B
:103B50003BE00498D0F8880420F0FE40029940EA47
:103B600001600499C1F888042FE00498D0F88C040F
:103B700020F07F00029908430499C1F88C0424E0E6
:103B80000498D0F88C0420F4FE40029940EA012009
:103B90000499C1F88C0418E00498D0F88C0420F43F
:103BA000FE00029940EA01400499C1F88C040CE03F
:103BB0000498D0F88C0420F0FE40029940EA01609D
:103BC0000499C1F88C0400E0FFE70198B0B1FFE769
:103BD0000498039909014058022161F301000499F6
:103BE000039A1201885005980499D1F83C14401AA0
:103BF0000499039A01EB0211C8600BE00498039941
:103C000009014058012161F301000499039A12014E
:103C10008850FFE705B0704780B590B00F900E91C7
:103C20000D9200200C900F98C0F380100790079819
:103C300068B1FFE79DF83C004007002803D5FFE787
:103C40000D980C9002E00E980C90FFE7FFE70C989F
:103C5000816940F2D060C0F20200FCF7C3FB0C980F
:103C600038B1FFE70C9880690A900A9800880B9099
:103C7000FFE740F2D850C0F20200FCF7B3FB0B990B
:103C800040F24960C0F20200FCF7ACFB0B984BF627
:103C9000AB61884207D1FFE740F20D60C0F202003D
:103CA000FCF7A0FB1CE10B990520B0EB113F42D1C2
:103CB000FFE70B98C0F3821006900B98C0F3C20088
:103CC00005900B9800F0070004900499069A059B54
:103CD00040F2B560C0F20200FCF784FB0C99059835
:103CE00051F82000069A51F82210084409900C98C7
:103CF000049950F8210008900A990B9A4FEA025C47
:103D000040F2E260C0F2020040F2E663C0F2020359
:103D1000BCF1000F48BF03460898DDF824E0EC46EC
:103D2000CCF804E0CCF8000040F2ED50C0F2020004
:103D3000FCF758FBD3E00B990320B0EB513F40D187
:103D4000FFE70B98C0F3841003900B98C0F3C200F8
:103D500005900B9800F0070004900499059A039BC6
:103D600040F27F60C0F20200FCF73CFB0C98059922
:103D700050F821000399084409900C98049950F8D0
:103D8000210008900A990B9A4FEA025C40F2E26027
:103D9000C0F2020040F2E663C0F20203BCF1000F81
:103DA00048BF03460898DDF824E0EC46CCF804E070
:103DB000CCF8000040F2ED50C0F20200FCF712FB1C
:103DC0008CE00B990820B0EB113F40D1FFE70B9836
:103DD000C0F3841003900B98C0F3C20005900B98B9
:103DE00000F0070004900499059A039B40F260607C
:103DF000C0F20200FCF7F6FA0C98059950F8210081
:103E00000399084409900C98049950F821000890EF
:103E10000A990B9A4FEA025C40F2E260C0F202009B
:103E200040F2E663C0F20203BCF1000F48BF034654
:103E30000898DDF824E0EC46CCF804E0CCF800006B
:103E400040F2ED50C0F20200FCF7CCFA45E00B99CD
:103E50000920B0EB113F38D1FFE79DF82C0002900C
:103E60000B98C0F3022004900499029A40F29C60DF
:103E7000C0F20200FCF7B6FA0C9880690299084477
:103E800009900C98049950F8210008900A990B9A0F
:103E90004FEA025C40F2E260C0F2020040F2E663E8
:103EA000C0F20203BCF1000F48BF03460898DDF8DA
:103EB00024E0EC46CCF804E0CCF8000040F2ED50F1
:103EC000C0F20200FCF78EFA06E040F23160C0F268
:103ED0000200FCF787FAFFE7FFE7FFE7FFE7FFE7EE
:103EE000FFE70C98006840F0010008B1FFE7F8E731
:103EF0000F9810B080BD000080B586B04DF6080068
:103F0000C4F200000068C00748B1FFE74DF60001A9
:103F1000C4F20001086840F001000860FFE74DF6B8
:103F20002C00C4F20000006805900598C00760B13D
:103F3000FFE740F2BC11C2F200010120C8704DF64B
:103F40002C01C4F200010860FFE70598C0050028B5
:103F500049D5FFE700200490FFE70498B0F5A06F73
:103F600005DAFFE7FFE7049801300490F5E74DF626
:103F70002C00C4F20000006805900598C0030028DA
:103F800016D5FFE740F2BB70C0F20200FCF72AFA38
:103F900040F2BC11C2F200010291002003900870AF
:103FA000886148610861C86088604860086012E004
:103FB00040F2D170C0F20200FCF714FA4DF200009A
:103FC000C4F2000001904FF4807100F0FDFB0198F5
:103FD00000F0CCFCFFE74DF62C01C4F200014FF4D9
:103FE00080700860FFE70598800700281CD5FFE770
:103FF00005980007002801D4FFE70EE00598400768
:10400000002809D4FFE740F2BC10C2F2000040785B
:1040100008B9FFE7FFE7FFE7FFE74DF62C01C4F221
:10402000000102200860FFE70598800400280FD5F2
:10403000FFE740F2E670C0F20200FCF7D3F94DF65C
:104040002C01C4F20001086840F400500860FFE74A
:104050000598C00400280FD5FFE740F60400C0F221
:104060000200FCF7BFF94DF62C01C4F2000108680C
:1040700040F480500860FFE706B080BD84B0039034
:104080000120019003984DF20001C4F20001884222
:1040900006D1FFE740F2BC10C2F20000009005E03C
:1040A00040F2D810C2F200000090FFE70398D0F869
:1040B00028084000002811D5FFE70398D0F82C0805
:1040C000C003002805D5FFE7009900200870019083
:1040D00003E0009901200870FFE736E00398D0F86C
:1040E000280800F08040B0F1804F2DD0FFE7039901
:1040F000D1F8200840F08000C1F82008002002908C
:10410000FFE7029841F28731884205D8FFE7FFE7D1
:10411000029801300290F4E70398D0F82C08C0030D
:10412000002804D5FFE700990120087004E00099F9
:10413000002008700190FFE70399D1F8200820F0D3
:104140008000C1F82008FFE7FFE7019804B070473E
:1041500083B0029040F27C61C2F20001002008604E
:1041600040F20C00C2F2000000680090FFE70299E4
:10417000D1F8200840F04000C1F8200840F20C00BF
:10418000C2F2000000680190FFE70298D0F8200812
:10419000400600280ED5FFE701980138019040B98C
:1041A000FFE740F27C61C2F200016FF0010008609D
:1041B00000E0EAE70298D0F82C080006002801D5B4
:1041C000FFE70DE000980138009040B9FFE740F2AA
:1041D0007C61C2F200016FF00100086000E0C6E7F8
:1041E00003B0704780B58CB00B9040F20C00C2F267
:1041F00000000068019040F27C61C2F200010020E2
:1042000008600B984DF20001C4F20001884206D10B
:10421000FFE740F2BC10C2F20000029005E040F25D
:10422000D810C2F200000290FFE70B9802998A684A
:10423000092103AB00F0C8FC02984068032806D0AF
:10424000FFE702984068042840F08D80FFE703985C
:1042500000F04040B0F1404F5FD1FFE70B9802996A
:104260008A6807210023009300F0ECFB009A029873
:1042700080690B99C1F808040B9940F2FF10C1F84E
:1042800038080B98082100F03BFD002844D1FFE7D7
:104290000B980721002200F0D3FD0B99D1F82008DC
:1042A00040F04000C1F82008FFE70B98D0F8200844
:1042B000400600280ED5FFE701980138019040B96B
:1042C000FFE740F27C61C2F200016FF0010008607C
:1042D00000E0EAE70299886990F8D7000006C86014
:1042E0000299C8688A6992F8D62040EA0240C860FC
:1042F0000299C8688A6992F8D52040EA0220C8600D
:104300000299C8688A6992F8D4201043C86002995B
:10431000C86840080861FFE724E00498C0F3034040
:104320000A90049805996FF39F20800040EA9170ED
:1043300009900598C0F3C230089009980130089997
:104340008A1C012101FA02F250430A9A9140484323
:1043500007900798800A029908610798400A029915
:10436000C860FFE741E09DF80F0010F0C00F16D0C5
:10437000FFE7049800F03F01BDF8160040EA014055
:10438000099009994FF4007000EB412007900798BD
:1043900002990861079840000299C86024E00498D7
:1043A000C0F303400A90049805996FF39F208000A2
:1043B00040EA917009900598C0F3C23008900998BE
:1043C000013008998A1C012101FA02F250430A9A2D
:1043D0009140484307900798800A0299086107981E
:1043E000400A0299C860FFE7FFE702994FF40070A6
:1043F00048610CB080BD000080B58CB00A9040F2DE
:104400007C61C2F20001002008600A984DF20001B0
:10441000C4F20001884206D1FFE740F2BC10C2F2AC
:104420000000019005E040F2D810C2F200000190B7
:10443000FFE70A984FF4967100F0CEFE0A99D1F882
:10444000200840F02000C1F8200840F20C00C2F221
:10445000000000680090FFE70A98D0F82008800666
:10446000002818D5FFE70198007830B9FFE740F23F
:104470001010CFF6FF700B90A2E100980138009069
:1044800040B9FFE740F27C61C2F200016FF0010029
:10449000086000E0E0E70A980022114600F0D0FC36
:1044A0004FF480500990FFE7099828B1FFE7FFE734
:1044B000099801380990F7E70199012088704FF6B3
:1044C000FF70C0F20F0002900A98029B082140F290
:1044D000551200F0B7FA09900998002857D1FFE764
:1044E0000A98029B3721002200F0ACFA01990120C2
:1044F00048700A98029B292148F20002C4F2FF0288
:1045000000F0A0FA0A98D0F83008079040F20C00AA
:10451000C2F2000000680090FFE7079800F4000076
:10452000B0F5000F24D0FFE70A98029B3721002244
:1045300000F088FA0199012048700A98029B29210D
:1045400048F20002C4F2FF0200F07CFA0A98D0F8A8
:104550003008079000980138009040B9FFE740F21A
:104560007C61C2F200016FF00100086000E0D4E756
:104570009DF81E004006002804D5FFE701990120A0
:10458000486003E0019902204860FFE7D7E00A98FD
:104590000022114600F054FC4FF480700990FFE7B0
:1045A000099828B1FFE7FFE7099801380990F7E774
:1045B0000A98029B3721002200F044FA09900998DA
:1045C000022867D1FFE70A980022114600F038FC64
:1045D0004FF480700990FFE7099828B1FFE7FFE7E3
:1045E000099801380990F7E70198012141700A986C
:1045F000029B48F20002C4F2FF0200F023FA0228F4
:104600003ED0FFE70A98D0F83008079040F20C003F
:10461000C2F2000000680090FFE7079800F4000075
:10462000B0F5000F1DD0FFE70198012141700A98F5
:10463000029B48F20002C4F2FF0200F003FA0A985B
:10464000D0F83008079000980138009040B9FFE793
:1046500040F27C61C2F200016FF00100086000E0EE
:10466000DBE79DF81E004006002804D5FFE701990E
:104670000420486003E0019903204860FFE708E058
:1046800001990020486040F21110CFF6FF700B90A6
:1046900096E053E00998002846D1FFE701990120F0
:1046A00048700A98029B292148F20002C0F2FF02DA
:1046B00000F0C8F90A98D0F83008079040F20C00D2
:1046C000C2F2000000680090FFE7079800F40000C5
:1046D000B0F5000F24D0FFE70A98029B3721002293
:1046E00000F0B0F90199012048700A98029B292135
:1046F00048F20002C0F2FF0200F0A4F90A98D0F8D4
:104700003008079000980138009040B9FFE740F268
:104710007C61C2F200016FF00100086000E0D4E7A4
:1047200001990220486008E001990020486040F2A9
:104730001510CFF6FF700B9042E0FFE7FFE70198FE
:104740004068D0B3FFE70A980221002203AB00F0D3
:104750003BFA01984068032805D0FFE701984068BC
:10476000042812D1FFE70A9803214FF48032002376
:1047700000F068F9089018B1FFE708980B901FE067
:1047800001994FF48030886016E00A9803210023D5
:104790001A4600F057F9089018B1FFE708980B90F7
:1047A0000EE00A98D0F8300800024FF6FF718843F7
:1047B00001998860FFE7FFE7FFE700200B90FFE724
:1047C0000B980CB080BD000080B586B005900491B8
:1047D00040F27C61C2F200010020086005990220CD
:1047E000C1F8000440F20C00C2F20000006803901F
:1047F000FFE70598D0F80004800700280ED5FFE7F2
:1048000003980138039040B9FFE740F27C61C2F29F
:1048100000016FF00100086000E0EAE7059901205F
:10482000C1F8000405990320C1F8000840F20C000B
:10483000C2F2000000680390FFE70598D0F8000876
:10484000C00770B1FFE703980138039040B9FFE754
:1048500040F27C61C2F200016FF00100086000E0EC
:10486000EBE705984DF20001C4F20001884216D131
:10487000FFE7402002F0B2FD40F2BC11C2F200019D
:1048800002910020886148610861C86088604860C2
:10489000086040F20820C2F2000088611FE005981D
:1048A0004EF20001C4F20001884216D1FFE75A20FF
:1048B00002F094FD40F2D811C2F2000101910020F3
:1048C000886148610861C86088604860086040F29B
:1048D0000C40C2F20000886100E0FFE7FFE70599A5
:1048E0000220C1F800089DF811008007002808D5B3
:1048F000FFE70599D1F8280820F08040C1F8280882
:1049000007E00599D1F8280840F08040C1F8280850
:10491000FFE70599D1F8280840F48070C1F828080D
:104920000599D1F8200840F48040C1F8200840F2F1
:104930000C00C2F2000000680390FFE70598D0F871
:104940002008400400280ED5FFE7039801380390A3
:1049500040B9FFE740F27C61C2F200016FF0010054
:10496000086000E0EAE706B080BD000080B584B0D2
:10497000029002990020C1F804080299D1F8200899
:1049800020F07060C1F820080299D1F8200840F0AA
:104990001060C1F820080299D1F8200820F47F00A7
:1049A000C1F820080299D1F8200840F48030C1F8FD
:1049B00020080299D1F8200820F40040C1F820080E
:1049C0000298FFF75BFB30B9FFE740F21010CFF61B
:1049D000FF70039033E00298FFF70EFD019018B1CD
:1049E000FFE7019803902AE040F2BC10C2F20000F9
:1049F0004068032808D0FFE740F2D810C2F2000058
:104A00004068032806D1FFE7029844F6206100F0D1
:104A1000E3FB05E0029846F2A81100F0DDFBFFE79A
:104A20000298FFF7DFFB029800F064FA019018B1DA
:104A3000FFE70198039002E000200390FFE703984E
:104A400004B080BD8AB0089007910692059348F2A1
:104A5000A060C0F20100029040F27C61C2F200014D
:104A60000020086008984DF20001C4F2000188425D
:104A700006D1FFE740F2BC10C2F20000039005E04F
:104A800040F2D810C2F200000390FFE706980899A0
:104A9000C1F824080898D0F8200843F60371884329
:104AA000079940EA01200330049004980899C1F85E
:104AB0002008059818B3FFE7FFE70898D0F820080A
:104AC000800700281AD5FFE70598411E059150B9C7
:104AD000FFE70899D1F8200840F48040C1F8200889
:104AE000022009906DE00398007830B9FFE740F2AA
:104AF0001010CFF6FF70099063E0DEE720E0FFE7DB
:104B00000898D0F820088007002818D5FFE70398F8
:104B1000007830B9FFE740F21010CFF6FF7009902F
:104B20004FE002980138029040B9FFE740F27C6103
:104B3000C2F200016FF00100086000E0E0E7FFE76B
:104B40000398807800B3FFE7002001900090089858
:104B5000D0F83408C0B200900898D0F8300800F0BF
:104B60000F000190009855280DD0FFE7019801280B
:104B700009D0FFE703990020887040F21910CFF6A2
:104B8000FF7009901DE0FFE70398407880B9FFE7C8
:104B90000898D0F82C084007002803D5FFE700202C
:104BA00009900EE040F21610CFF6FF70099008E071
:104BB000039900204870089A0221C2F82C18099025
:104BC000FFE709980AB0704780B58EB00C900B9142
:104BD0000A92099340F20C00C2F2000000680090B3
:104BE00040F27C61C2F20001002008600C984DF296
:104BF0000001C4F20001884206D1FFE740F2BC1078
:104C0000C2F20000019005E040F2D810C2F20000AC
:104C10000190FFE70A980C99C1F824080C98D0F885
:104C2000200843F6117188430B9940EA01201130A6
:104C3000079007980C99C1F82008FFE70C98D0F866
:104C40002008C006002818D5FFE70198007830B981
:104C5000FFE740F21010CFF6FF700D904CE0009887
:104C60000138009040B9FFE740F27C61C2F20001D8
:104C70006FF00100086000E0E0E70C98D0F82C0825
:104C8000400700282FD5FFE700200890FFE708988D
:104C900004280FD8FFE70C98089950F8210000F07D
:104CA00049FC089A02A941F82200FFE70898013060
:104CB0000890ECE700200890FFE70898032811D837
:104CC000FFE7089A02A901EB820051F82210C0798F
:104CD00040EA0120099941F82200FFE708980130D5
:104CE0000890EAE705E040F21610CFF6FF700D904D
:104CF00002E000200D90FFE70D980EB080BD00008F
:104D000087B005900491039240F27C61C2F20001E9
:104D10000020086005984DF20001C4F200018842AD
:104D200006D1FFE740F2BC10C2F20000019005E09E
:104D300040F2D810C2F200000190FFE703980599F5
:104D4000C1F824080598D0F8200843F60771884375
:104D5000049940EA01200730029002980599C1F8B1
:104D6000200840F20C00C2F2000000680090FFE74B
:104D70000598D0F820088007002818D5FFE701988B
:104D8000007830B9FFE740F21010CFF6FF700690C0
:104D900052E000980138009040B9FFE740F27C6192
:104DA000C2F200016FF00100086000E0E0E740F2AD
:104DB0000C00C2F2000000680090FFE70598D0F8F0
:104DC00020084007002818D5FFE70198007830B97F
:104DD000FFE740F21010CFF6FF7006902CE000982D
:104DE0000138009040B9FFE740F27C61C2F2000157
:104DF0006FF00100086000E0E0E70598D0F82C08AB
:104E000000F00400042806D0FFE740F21610CFF6A9
:104E1000FF70069010E00598D0F82C0800F008000C
:104E2000082806D0FFE740F21710CFF6FF70069073
:104E300002E000200690FFE7069807B070470000E8
:104E400087B00690059104920020029040F20C0178
:104E5000C2F200010968009140F27C61C2F20001D7
:104E6000086006984DF20001C4F20001884206D1A4
:104E7000FFE740F2BC10C2F20000019005E040F2F2
:104E8000D810C2F200000190FFE704980699C1F81B
:104E900024080698D0F8200843F601718843059944
:104EA00040EA01200130039003980699C1F82008D8
:104EB000FFE70698D0F82008C007C0B1FFE70198C7
:104EC000007830B9FFE740F21010CFF6FF70029083
:104ED000FFE700980138009040B9FFE740F27C619D
:104EE000C2F200016FF00100086000E0E1E7029803
:104EF00007B0704780B586B004900020039040F260
:104F00007C61C2F20001086004984DF20001C4F215
:104F10000001884206D1FFE740F2BC10C2F2000057
:104F2000019005E040F2D810C2F200000190FFE7C6
:104F3000049801998A6807210023FFF783FD0390F5
:104F400018B1FFE70398059043E10498FFF700F9D3
:104F50000198406801287CD1FFE701988069049995
:104F6000C1F8080404990720C1F838080499D1F859
:104F7000000440F00200C1F8000440F20C00C2F24C
:104F8000000000680090FFE70498D0F80004800754
:104F900000280ED5FFE700980138009040B9FFE7E0
:104FA00040F27C61C2F200016FF00100086000E095
:104FB000EAE7049801998A6837210023FFF742FD48
:104FC000039018B1FFE70398059002E1049833219C
:104FD0000022FFF795FE039018B1FFE703980590B4
:104FE000F7E001988069007800F00F0002280FD1E7
:104FF000FFE70498019900F0BBFA0390039830B9D9
:10500000FFE704984CF2503100F0E6F8FFE7FFE7C5
:10501000049801998A6837210023FFF713FD039054
:1050200018B1FFE703980590D3E004980621022207
:105030000023FFF707FD039018B1FFE703980590E1
:10504000C7E00499D1F8200840F40040C1F82008D6
:105050007BE001984068022842D1FFE7019880690F
:105060000499C1F8080404990720C1F83808049885
:1050700001998A6837210023FFF7E4FC039018B1F7
:10508000FFE703980590A4E0049833210022FFF77E
:1050900037FE039018B1FFE70398059099E0049854
:1050A00001998A6837210023FFF7CCFC039018B1DF
:1050B000FFE7039805908CE0049806210222002364
:1050C000FFF7C0FC039018B1FFE70398059080E05C
:1050D0000499D1F8200840F40040C1F8200833E0DA
:1050E00001984068032805D0FFE70198406804282C
:1050F00029D1FFE701984068032808D1FFE7049908
:10510000D1F8200820F40040C1F82008FFE740F261
:105110000010C0F2B73002900498029A06210023D2
:10512000FFF790FC039018B1FFE70398059050E05B
:105130000498FFF70DF80499D1F8200840F40040D6
:10514000C1F82008FFE7FFE7FFE7049810214FF4BC
:1051500000720023FFF776FC039018B1FFE7039875
:10516000059036E0049940F2FF10C1F83808049821
:1051700007210022FFF764FE0499D1F8200840F0CF
:105180004000C1F8200840F20C00C2F200000068A4
:105190000090FFE70498D0F82008400600280ED5BC
:1051A000FFE700980138009040B9FFE740F27C61CA
:1051B000C2F200016FF00100086000E0EAE7049924
:1051C000D1F8280840F00100C1F828080020059017
:1051D000FFE7059806B080BD80B584B003900291CA
:1051E00000F08CFA0298B0F5C87F52D8FFE740F281
:1051F0000020C4F20000016840F2F810C2F2000082
:105200000160006800F00400042809D0FFE740F2C4
:105210000021C4F20001086840F004000860FFE7C4
:1052200003984DF20001C4F20001884218D1FFE753
:1052300040F21021C4F20001086800F4401040F26E
:10524000F412C2F200021060086840F440100860D6
:1052500040F20421C2F2000142F6E060086017E06B
:1052600040F21021C4F20001086800F4400040F24E
:10527000F412C2F200021060086840F440000860B6
:1052800040F20841C2F2000142F6E0600860FFE728
:10529000E8E040F2F810C2F20000006840F200219D
:1052A000C4F20001086003984DF20001C4F200014D
:1052B000884266D1FFE740F21022C4F20002106873
:1052C00020F4401140F2F410C2F2000003681943C8
:1052D0001160006878B9FFE7FCF7D2FA44F6D351C1
:1052E000C1F26201A0FB0110800940F20421C2F268
:1052F0000001086044E040F2F410C2F200000068CF
:10530000B0F5401F08D1FFE740F20421C2F20001CE
:1053100042F6E060086032E040F2F410C2F20000B1
:105320000068B0F5801F10D1FFE7FCF793FB400841
:1053300044F6D351C1F26201A0FB0110800940F292
:105340000421C2F20001086018E040F2F410C2F239
:1053500000000068B0F5001F0FD1FFE7FCF786FAE8
:1053600044F6D351C1F26201A0FB0110800940F262
:105370000421C2F200010860FFE7FFE7FFE7FFE753
:1053800065E040F21022C4F20002106820F44001EF
:1053900040F2F410C2F20000036819431160006883
:1053A00078B9FFE7FCF76CFA44F6D351C1F2620119
:1053B000A0FB0110800940F20841C2F20001086020
:1053C00044E040F2F410C2F200000068B0F5400F73
:1053D00008D1FFE740F20841C2F2000142F6E06066
:1053E000086032E040F2F410C2F200000068B0F54C
:1053F000800F10D1FFE7FCF72DFB400844F6D35196
:10540000C1F26201A0FB0110800940F20841C2F222
:105410000001086018E040F2F410C2F200000068D9
:10542000B0F5000F0FD1FFE7FCF720FA44F6D35197
:10543000C1F26201A0FB0110800940F20841C2F2F2
:1054400000010860FFE7FFE7FFE7FFE7FFE70298DB
:105450004CF25031884204D3FFE74CF250300290B6
:10546000FFE7FFE703984DF20001C4F20001884214
:1054700016D1FFE740F20420C2F200000168029A50
:10548000B1FBF2F1019102680299B2FBF1F000FB6D
:10549000112020B1FFE7019801300190FFE715E0EE
:1054A00040F20840C2F200000168029AB1FBF2F13A
:1054B000019102680299B2FBF1F000FB112020B1CA
:1054C000FFE7019801300190FFE7FFE70198B0F591
:1054D000807F04D3FFE74FF480700190FFE70198CD
:1054E0000138C0B2009003984DF20001C4F20001EF
:1054F00088420ED1FFE740F22021C4F20001086883
:1055000020F07F400860009A086840EA0260086066
:105510000DE040F22C21C4F20001086820F07F4029
:105520000860009A086840EA02600860FFE704B07B
:1055300080BD000082B001900198009001980006A3
:1055400001909DF801000102019840EA01200190BC
:1055500000994FF47F4000EA11210198084301901F
:105560009DF80310019808430190019802B070471C
:1055700080B586B0049003910020029040F20C01A7
:10558000C2F200010968009140F27C61C2F20001A0
:105590000860039880690499C1F8080404993F20C1
:1055A000C1F83808049806214FF60172C0F2FF02D4
:1055B000FFF7A6FB029018B1FFE70120059076E007
:1055C0000398806900780002ADF8060003988069AE
:1055D0004178BDF806000843ADF80600BDF80600A6
:1055E00018B9FFE70120059061E003988069007F0A
:1055F0000002ADF8040003988069417FBDF8040003
:105600000843ADF80400BDF8040000284CD1FFE7C2
:10561000039880690499C1F8080404993F20C1F8EF
:105620003808049806214FF60172C8F2FF02FFF70E
:1056300067FB029018B1FFE70120059037E004995D
:10564000D1F8200840F04000C1F82008FFE7049896
:10565000D0F82008400600280ED5FFE70098013852
:10566000009040B9FFE740F27C61C2F200016FF0A8
:105670000100086000E0EAE7039880690078000212
:10568000ADF80600039880694178BDF8060008432C
:10569000ADF80600BDF8060018B9FFE70120059037
:1056A00005E00020059002E001200590FFE7059845
:1056B00006B080BD81B040F20C00C2F2000000686C
:1056C0000090FFE740F20011C4F200015920086089
:1056D000162008608820086000980138009008B9FA
:1056E000FFE708E0FFE740F20010C4F200000068A6
:1056F0000028E7D0FFE701B07047000081B040F21A
:105700000C00C2F2000000680090FFE740F20011B8
:10571000C4F2000159200860162008608820086043
:1057200000980138009008B9FFE708E0FFE740F271
:105730000010C4F2000000680028E7D0FFE701B0C5
:105740007047000081B040F20C00C2F20000006817
:105750000090FFE740F20011C4F2000159200860F8
:10576000162008608820086000980138009008B969
:10577000FFE708E0FFE740F20010C4F20000006815
:105780000028E7D0FFE701B07047000080B582B085
:105790000190019800F002F802B080BD81B0009045
:1057A0009DF800000A2810D1FFE7FFE71820C4F297
:1057B000070000680002002801D5FFE7F6E7002196
:1057C000C4F207010D200860FFE7FFE71820C4F2CC
:1057D000070000680002002801D5FFE7F6E70098FF
:1057E0000021C4F20701086001B0704740F208715F
:1057F000C2F20001086801300860704780B584B0CB
:10580000FCF728F940F20801C2F20001086040F2FA
:105810001020C4F20000006800F007000290029817
:10582000022807D1FFE740F20800C2F2000000683A
:10583000039008E0029940F21800C2F2000050F80C
:1058400021000390FFE740F22020C4F2000000682E
:1058500000F00F000130019003980199B0FBF1F1C5
:1058600040F20C00C2F20000016000684AF2201110
:10587000C0F2070108444DF68361C4F21B31A0FB5E
:105880000110800C40F20401C2F20001086004B073
:1058900080BD000080B54EF68851CEF20001086848
:1058A00040F470000860FFF705FF1421C4F2000106
:1058B000086840F08000086040F20021C4F2000156
:1058C000086820F48050086080BD000081B000901E
:1058D00000990120886001B07047000081B00090FD
:1058E0000099086840F00050086001B0704700005F
:1058F00010B58CB00B9049F26851C0F200010091D4
:1059000008684A688B68D1F80CC0D1F810E04C697F
:105910000694CDF814E0CDF810C0039302920190E4
:105920008869C969089107900B980021C4F20501A4
:10593000884209D1FFE740F21420C4F20000006859
:10594000C0F302200A902CE00B9840F20011C4F240
:105950000501884209D1FFE740F21420C4F200009B
:105960000068C0F302300A901AE00B9841F200017F
:10597000C4F20501884209D1FFE740F21420C4F2C5
:1059800000000068C0F302400A9008E040F21420D2
:10599000C4F200000068C0F302500A90FFE7FFE77E
:1059A000FFE70A98022818D1FFE70B980021C4F2FC
:1059B0000501884208D0FFE70B9840F20011C4F2BD
:1059C0000501884204D1FFE7FBF770FF099003E06F
:1059D000FBF7D6FF0990FFE705E00A9901A850F808
:1059E00021000990FFE709980CB010BD80B586B082
:1059F0000590049103920598FFF77AFF029000202A
:105A00000190009003980299B0EB510F03D9FFE782
:105A10000220019012E002980399B0FBF1F001908E
:105A20009DF807000090009838B1FFE701980099B1
:105A30000131B0FBF1F00190FFE7FFE70498009916
:105A400008430599086001980599486002980199F2
:105A5000009A01325143B0FBF1F006B080BD000066
:105A600081B000900099086840F08040086001B063
:105A70007047000080B50020C4F20500FFF726FF44
:105A8000FDF738FD80BD000080B58AB0099008910F
:105A900000200790069049F2385CC0F2000CDCF858
:105AA0000010DCF80420DCF80830DCF80CC0CDF87D
:105AB00014C0049303920291019009980090002170
:105AC000C4F2070188424CD0FFE7009841F2000180
:105AD000C4F20701884255D0FFE7009842F2000166
